:100000000C94A6000C94CE000C94CE000C94CE0060
:100010000C94CE000C94CE000C94CE000C94CE0028
:100020000C94CE000C94CE000C94E3040C94550573
:100030000C94CE000C94CE000C94CE000C94CE0008
:100040000C94CE000C94CE000C94CE000C94CE00F8
:100050000C94CE000C94CE000C94CE000C94990419
:100060000C94CE000C94CE000C94CE000C94CE00D8
:100070000C94CE000C94CE000C94CE000C94CE00C8
:100080000C94CE000C94CE000C94CE000C94CE00B8
:100090000C94CE000C94CE000C94CE000C94CE00A8
:1000A0000C94CE000C94CE000C94CE00080B0002F1
:1000B0000202010009040000010202000005240000
:1000C0001001052401010104240206052406000193
:1000D0000705810310004009040100020A00000026
:1000E00007050202400000070583024000000403E8
:1000F000090412010002EF0201404F1B08920001A7
:1001000001020301537061726B46756E004C696C9D
:1001100079506164205553420005010904A101850D
:1001200001A1000509190129081500250195087587
:1001300001810205010901A1000930093115FF25DE
:1001400001950275088102C0C0C0930711241FBE2B
:10015000CFEFDAE0DEBFCDBF11E0A0E0B1E0E6EE28
:10016000F2E102C005900D92A233B107D9F721E068
:10017000A2E3B1E001C01D92AE3CB207E1F710E08E
:10018000C6EAD0E004C02197FE010E946609C53A84
:10019000D107C9F70E9427080C9471090C9400003C
:1001A000CF93DF93FC01A281B381109729F483EAF6
:1001B00091E0938382830EC018968D919C9119973C
:1001C000009711F0DC01F8CF83EA91E019969C9337
:1001D0008E93189780818093A50181818093A601D9
:1001E00090818091A801890F808380E09091A70180
:1001F000891788F49181A92FB0E0A35FBE4FC09109
:10020000A901D091AA01C80FD11D28812C939F5F0D
:1002100091838F5FEBCF81E0DF91CF9108952091A3
:100220005201211103C08FEF9FEF08955FB7F8943B
:1002300022E02093E9002091F20030E0121613062C
:1002400014F421E030E0422FFC0184E6415038F004
:100250002898809351019091F1009193F7CF211547
:10026000310521F08091F200882319F05FBFC901A8
:1002700008958BE68093E800F9CFCF92DF92EF925A
:10028000FF920F931F93CF93DF936C017A018B0141
:10029000C0E0D0E0CE15DF0581F0D8016D918D0171
:1002A000D601ED91FC910190F081E02DC6010995F8
:1002B000892B11F02196EECF7E01C701DF91CF91FE
:1002C0001F910F91FF90EF90DF90CF900895CF9303
:1002D000DF931F92CDB7DEB76983DC01ED91FC910E
:1002E0000280F381E02D41E050E0BE016F5F7F4F5F
:1002F00009950F90DF91CF91089583E08093E900F5
:100300008091F200882319F08AE38093E800089531
:10031000CF93DF931F92CDB7DEB7FC01848595851F
:1003200097FD05C02FEF3FEF358724870BC0CE0127
:1003300001960E940F01019719F4898190E002C093
:100340008FEF9FEF0F90DF91CF9108950F931F9341
:10035000CF93DF931F92CDB7DEB78C01FC0184856C
:10036000958597FF0EC0CE0101960E940F0101975F
:1003700019F4898190E002C08FEF9FEFF801958713
:100380008487F801848595850F90DF91CF911F9127
:100390000F910895FC018485958597FD0BC09FB74B
:1003A000F89482E08093E9008091F2009FBF90E092
:1003B000019608959FB7F89482E08093E9008091B8
:1003C000F2009FBF90E00895089580E090E00895C6
:1003D0003FB7F89480914D0190914E01A0914F014B
:1003E000B091500126B5A89B05C02F3F19F001968A
:1003F000A11DB11D3FBFBA2FA92F982F8827820FAB
:10040000911DA11DB11DBC01CD0143E0660F771FF9
:10041000881F991F4A95D1F70895CF92DF92EF92E6
:10042000FF920E94E8016B017C010E94E801DC015F
:10043000CB018C199D09AE09BF09883E9340A105E7
:10044000B10598F3FF90EF90DF90CF900895409121
:1004500040015091410120913E0130913F014217EE
:100460005307B4F49091E8009570E1F39091E8009F
:1004700092FD19C08093F10080914001909141015B
:1004800001968F739927892B19F48EEF8093E800DA
:100490008091400190914101019690934101809398
:1004A000400181E0089580E00895DF92EF92FF928D
:1004B0000F931F93CF93DF93D82EF92EE42E062FA0
:1004C00010E0C8010196880F0E94270283E00E9475
:1004D0002702CD2DDF2D0C0F1D1FC017D10789F06E
:1004E000E7FE03C0FE01849101C088810E942702BB
:1004F000F82E80E00E9427028F2121968111EDCFF6
:1005000001C081E0DF91CF911F910F91FF90EF909B
:10051000DF900895DF92EF92FF920F931F93CF9396
:10052000DF93D82E8A017B01E40EF51EEB01CE1578
:10053000DF0571F0D7FE03C0FE01849101C0888100
:100540000E94270221968111F2CF8FEF9FEF01C009
:10055000C801DF91CF911F910F91FF90EF90DF9035
:1005600008952FB7F89487708093E9009091E80080
:10057000892F807295FF04C09091F20080E4891B5E
:100580002FBF089583E00E94B10290E008957F920A
:100590008F929F92AF92BF92CF92DF92EF92FF9293
:1005A0000F931F93CF93DF93C82E8B017A01809115
:1005B0005201811103C08FEF9FEF70C08091440101
:1005C00080FF05C08091E00082608093E000CE2D26
:1005D000DF2DD12C8AEFB82E8C2D8770982E8C2D84
:1005E0008072882E8C2D8074782E9AE3A92E209705
:1005F00019F4DD2009F44DC08C2D0E94B102811147
:1006000006C0BA94BB20B9F20E940D02F0CF282F89
:1006100030E0C217D3070CF48C2F9FB7F894909258
:10062000E9002091E80025FF32C0282F30E0C21BEE
:10063000D30B882029F08150A0F01092F100FBCF5D
:10064000F801C7FE0AC0815050F044914093F10078
:100650003196F9CF41914093F1008150D8F7020FC4
:10066000131FDD2019F0A092E8000AC08091E80075
:1006700085FD08C0A092E800DD24D394209739F0CE
:10068000D12C05C0209719F47110A092E8009FBFEB
:10069000AECF5D9884E680934301C701DF91CF918F
:1006A0001F910F91FF90EF90DF90CF90BF90AF9090
:1006B0009F908F907F900895CF93DF93EC0180916E
:1006C0000C01882331F083E00E94C7021816190636
:1006D00034F081E090E09B838A8380E090E0DF91BA
:1006E000CF910895615030F02091F100FC012083FA
:1006F0000196F8CF289884E680935101089580915F
:10070000360181110DC082E08093320184E0809334
:100710003301109235011092340181E0809336014B
:1007200082E391E008950F931F93CF93DF931F927D
:10073000CDB7DEB782E0898342E450E06CEA70E036
:1007400080E80E948A020E947F03DC0112960D91CC
:100750001C9113970115110589F0D801ED91FC91B9
:100760000280F381E02DBE016F5F7F4FC8010995C4
:1007700097FD04C0F80100851185ECCF89810F90A9
:10078000DF91CF911F910F910895DC01FB0112962B
:100790008C91129790E02481358182179307D1F4D0
:1007A00091818081813A31F481E0913091F09330F0
:1007B00089F411C0813271F49B3021F482811F963B
:1007C0008C9305C09A3031F4828150968C9381E0ED
:1007D0000895089580E00895DC01FB0188E480839A
:1007E00089E4818384E482831D969C911D979F7088
:1007F0009F5B93831D968D919C911E9724E0969507
:1008000087952A95E1F78F708F5B848385E0089543
:10081000EF92FF920F931F93CF93DF93FB01208101
:10082000213851F52381223239F5DC0112962C91C1
:1008300030E04481558142175307F1F4EC010B85F8
:100840001C85E12CF12C0115110591F0F801448172
:1008500055816281738180E80E948A028F3FFFEF99
:100860009F0769F0E80EF91ED8010D911C91EBCF9E
:1008700081E08F87C70105C080E090E002C08FEF64
:100880009FEFDF91CF911F910F91FF90EF9008950F
:10089000CF93DF93CDB7DEB769970FB6F894DEBF7D
:1008A0000FBECDBFFC01DB018C918F5F8C93BE012D
:1008B0006F5F7F4F89E1DB011D928A95E9F729E09F
:1008C000298384E08A8391E09D8383E08E832A8755
:1008D00021E22B879C879D879F8722E2288B27E038
:1008E0002B8B25E02C8B8E8B20E430E0388F2F8BE8
:1008F000998F82818B8395858685998B8A8B83815D
:1009000080688D8B49E150E080E00E948A02699600
:100910000FB6F894DEBF0FBECDBFDF91CF91089523
:10092000FC0182818F5BFB01808381E008950E943E
:100930006C091F920F920FB60F9211242F933F93C1
:100940008F939F93AF93BF938091490190914A01F8
:10095000A0914B01B0914C013091480126E0230F4A
:100960002D3720F40296A11DB11D05C029E8230FE3
:100970000396A11DB11D20934801809349019093D6
:100980004A01A0934B01B0934C0180914D0190918D
:100990004E01A0914F01B09150010196A11DB11DD2
:1009A00080934D0190934E01A0934F01B09350015D
:1009B000BF91AF919F918F913F912F910F900FBE5B
:1009C0000F901F9018951F920F920FB60F9211243F
:1009D0008F939F938091E1009091E100937F90939A
:1009E000E10083FF0FC01092E90091E09093EB00CB
:1009F0001092EC0092E39093ED001092520198E077
:100A00009093F00082FF20C093E09093E9009091D2
:100A1000F200992319F09AE39093E8009091430132
:100A2000992339F090914301915090934301992378
:100A300089F190915101992339F090915101915090
:100A400090935101992341F184FF10C08091E200FD
:100A50008E7E81608093E2008091E1008F7E8093A2
:100A6000E100809144018E7E806111C080FF16C03C
:100A70008091E2008E7E80618093E2008091E100AF
:100A80008E7E8093E100809144018E7E8160809310
:100A9000440104C05D9ACDCF289AD6CF9F918F9103
:100AA0000F900FBE0F901F9018951F920F920FB6C8
:100AB0000F921124CF92DF92EF92FF920F931F9328
:100AC0002F933F934F935F936F937F938F939F9356
:100AD000AF93BF93EF93FF93CF93DF93CDB7DEB781
:100AE0006C97DEBFCDBF1092E9008091E80083FFD4
:100AF000FBC168E0CE0145960E94720382EF8093AD
:100B0000E8008D8987FF05C09091E80090FFFCCF39
:100B100003C09EEF9093E800982F907609F0C6C02E
:100B20009E894F89588D2F89F88C91110CC080387F
:100B300029F4809145018093F10002C01092F100E8
:100B40001092F10045C1913051F4811141C1413001
:100B5000510509F03DC1809145018D7F0BC0933057
:100B600061F4811135C14130510509F031C18091E5
:100B700045018260809345012BC1953049F48091F5
:100B8000E80080FFFCCF822F80688093E30020C1C3
:100B9000963009F05EC00B8D1C8D22E01092E900AA
:100BA0001092410110924001F21232C010923F01A6
:100BB00010923E010E94930399E0BE016F5F7F4F48
:100BC000DB01E92F1D92EA95E9F79983FA8291E01A
:100BD0009E8390EA98879AEF9987209140013091FF
:100BE0004101275F3F4F3C832B838D831092E900A7
:100BF000109241011092400110933F0100933E0179
:100C000049E050E080E00E948A020E949303E0C025
:100C100010933F0100933E010E947F03DC01129676
:100C20000D911C9113970115110509F4BBC0D80152
:100C3000ED91FC910480F581E02DBE016B5E7F4F4C
:100C4000C8010995009709F0C7C0F8010085118512
:100C5000EACF973009F445C1983021F481E08093C0
:100C6000F100B6C0993009F0B3C0837009F039C102
:100C7000EEE0F1E081E031E096E32081211109C04E
:100C80008EE78093EA001092EA008F8980935201E8
:100C90009FC08093E9003093EB0021912093EC00FA
:100CA0009093ED008F5F873041F7EACF8B8D9C8D5D
:100CB0001092E900109241011092400190933F017F
:100CC00080933E01898D811153C08E899D89913A0F
:100CD00049F4813209F005C147E050E065E071E078
:100CE00080E0BBC0913209F0FCC0833269F48F8987
:100CF000988DA0E0B0E08093000190930101A09353
:100D00000201B093030164C0803269F48091E8006D
:100D100082FFFCCF67E085E091E00E9472038BEFD9
:100D20008093E80055C0823209F052C08F898093C9
:100D30000C01EEEFFFE7859194918B3F9C4D19F0EC
:100D4000E0E0F8E002C0EEEFFAE08091050190915A
:100D50000601A0910701B0910801803B9440A105D4
:100D6000B10509F09EC080910C0180FF79C099C047
:100D70000E947F03FC01028113810115110509F412
:100D8000B0C0D801ED91FC910190F081E02DBE0141
:100D90006B5E7F4FC801099581111AC0F80100856B
:100DA0001185EBCFF1E0FF1609F44EC0F3E0FF121E
:100DB00098C08F89882309F44AC0823089F440E8BA
:100DC0006BE08DE091E00E945502882309F489C010
:100DD0008EEF8093E80088C018161906CCF381C006
:100DE000813029F440E868E084E091E0ECCF833082
:100DF00009F077C00E947F03DC011296ED90FC9011
:100E000013978E010F5F1F4F6801E114F10479F011
:100E1000D701ED91FC910680F781E02DB801C70163
:100E20000995080F111DF701E084F184EECFD80178
:100E30001C92F60101900020E9F73197BF016C196F
:100E40007D0940E0C601BFCF62EF70E002C06EEEE8
:100E500070E0FB01449150E080E80E948A02B8CF24
:100E6000EE3F2AE0F20751F0808191818737A7E7B2
:100E70009A0721F09093FF0A8093FE0A87E797E78D
:100E80009183808380916000809342019BE088E1A0
:100E90000FB6F894A895809360000FBE9093600001
:100EA00097CF808191818737974709F091CFA89597
:100EB00080916000886180936000809142018093FE
:100EC0006000EE3FBAE0FB0739F08091FE0A909196
:100ED000FF0A918380837CCF1092FF0A1092FE0A52
:100EE00077CF81E28093EB006C960FB6F894DEBF6B
:100EF0000FBECDBFDF91CF91FF91EF91BF91AF9129
:100F00009F918F917F916F915F914F913F912F9121
:100F10001F910F91FF90EF90DF90CF900F900FBE39
:100F20000F901F901895109256011092550188EE5F
:100F300093E0A0E0B0E08093570190935801A09314
:100F40005901B0935A0188E191E090935401809344
:100F500053018FEF9FEF9093600180935F0181E0D9
:100F60008093CA019091C201911112C01092BD01EB
:100F70001092BC0129E131E03093BF012093BE0102
:100F800021E330E03093C1012093C0018093C2017E
:100F90008091B401811135C081E08093A7018093D5
:100FA000A8012DEA31E03093AA012093A901109203
:100FB000AC011092AB012AE231E03093A4012093FE
:100FC000A3011092AF011092AE011092B1011092E4
:100FD000B0018093B2018093B30181EC8093AD01A5
:100FE0000E947F03FC0141812091A70130E0240F82
:100FF000311D2830310514F40E94D00081E0809327
:10100000B401E091AE01F091AF01309739F48CEB6F
:1010100091E09093AF018093AE010AC080819181ED
:10102000009711F0FC01FACF8CEB91E09183808363
:101030002091B0013091B1018091C0019091C10126
:10104000820F931F9093B1018093B0010895CF93C5
:10105000DF931F92CDB7DEB7789484B5826084BDEC
:1010600084B5816084BD85B5826085BD85B58160AC
:1010700085BD80916E00816080936E00109281002A
:1010800080918100826080938100809181008160E5
:1010900080938100809180008160809380008091A6
:1010A0009100826080939100809191008160809393
:1010B0009100809190008160809390008091C100A8
:1010C00084608093C1008091C10082608093C100E0
:1010D0008091C10081608093C1008091C3008160D4
:1010E0008093C3008091C00082608093C000809193
:1010F000C20081608093C20080917A0084608093F6
:101100007A0080917A00826080937A0080917A00E0
:101110008E7F80937A0080917A00806880937A0035
:101120001092520110924501109244018091D70013
:1011300081608093D70080EA8093D80089B58F7E44
:1011400089BD89B5826089BD09B400FEFDCF0E94CA
:101150000D028091D8008F7C80618093D8008091AF
:10116000E000807F8093E0008091E1008E7E80939C
:10117000E1008DE08093E200559A209A80B38F7051
:1011800080BB81B3806F81BB8AB18C7F8AB98BB100
:1011900083608BB984B1817884B985B18E6785B954
:1011A00081E08093CA0100E010E0BB24B3948DEA93
:1011B000E82E81E0F82E9AE2C92E91E0D92E21EC9A
:1011C000A22E8FB1807F809529B193B19E77990F20
:1011D0002370922B9095209104018217B1F086FB29
:1011E000222720F9382F330F330B230F2093CD0103
:1011F00084FB222720F985FB332730F9231B20931A
:10120000CC0180930401B092470180914601981768
:1012100031F09093CB0190934601B09247018091B9
:101220004701882309F44BC09090CA018091B40112
:1012300081112EC0B092A701B092A801F092AA012C
:10124000E092A9011092AC011092AB01D092A401DE
:10125000C092A3011092AF011092AE011092B101A1
:101260001092B001B092B201B092B301A092AD0160
:101270000E947F03FC0141812091A70130E0240FEF
:10128000311D2830310514F40E94D000B092B40111
:10129000998241E050E0BE016F5F7F4F8091A601CF
:1012A0000E94C70297FD09C08091A60143E050E06B
:1012B0006BEC71E080640E94C70210924701011537
:1012C000110509F47ECF0E9400007BCFEE0FFF1FB7
:1012D0000590F491E02D099481E090E0F8940C944D
:0612E0007109F894FFCF34
:1012E600FFFFFFFF0F00E100000000000000C180CB
:1012F600810000000000000067015C03C2027D015E
:10130600CA018801A60100000000C50348040804BC
:02131600EC03E6
:1070000055C000006EC000006CC000006AC00000E7
:1070100068C0000066C0000064C0000062C00000DC
:1070200060C000005EC00000FCC400005AC0000048
:1070300058C0000056C0000054C0000052C00000FC
:1070400050C000005DC000004CC000004AC00000FD
:1070500048C0000046C0000044C0000042C000001C
:1070600040C000003EC000003CC000003AC000002C
:1070700038C0000036C0000034C0000032C000003C
:1070800030C000002EC000002CC000002AC000004C
:1070900028C0000026C0000024C0000022C000005C
:1070A00020C000001EC000001CC0000011241FBE34
:1070B000CFEFDAE0DEBFCDBF11E0A0E0B1E0E2E467
:1070C000FFE702C005900D92A83BB107D9F711E088
:1070D000A8EBB1E001C01D92A13DB107E1F74FD38C
:1070E0002EC78ECFF89410926F001092810081E02D
:1070F00085BF15BE47985D9A289A0C9400000895A4
:107100001F920F920FB60F9211242F938F939F937C
:10711000EF93FF9310928500109284008091B80144
:107120009091B901009741F001979093B901809334
:10713000B801892B09F45D9A8091BA019091BB0145
:10714000009741F001979093BB018093BA01892B7E
:1071500009F4289A8091BE019091BF010196909305
:10716000BF018093BE01E0E0F0E0859194918F5FD4
:107170009F4F49F08091BC019091BD010196909381
:10718000BD018093BC01FF91EF919F918F912F9151
:107190000F900FBE0F901F90189584E08093E90028
:1071A0000DC08091E8008B778093E80003C08EB318
:1071B000882351F08091E80082FFF9CF8091E800A8
:1071C00085FFEFCF8091F1000895982F83E08093A1
:1071D000E9008091E80085FD0DC08091E8008E7780
:1071E0008093E80003C08EB3882369F08091E800A3
:1071F00080FFF9CF9093F1005D9884E690E0909342
:10720000B9018093B80108954F925F926F927F9277
:107210008F929F92AF92BF92CF92DF92EF92FF92A6
:107220000F931F93CF93DF9384E08093E9008091C5
:10723000E80082FF57C2289884E690E09093BB0153
:107240008093BA01AADF182F853481F48CEA9DE07F
:107250009093BD018093BC0107B600FCFDCFF99966
:10726000FECF81E180935700E89503C0843519F47F
:1072700094DF8DE00DC28C34E1F38035D1F3843797
:1072800021F484E4A2DF80E003C2813611F489E5B1
:10729000FFC18134B1F481DF182F7FDF90E0880FC8
:1072A000991FAA2797FDA095BA2F312F330F20E001
:1072B000442737FD4095542F822B932BA42BB52BBD
:1072C000B8C1803711F483E5E3C1833549F4C0E0E8
:1072D000D1E089917ADF21E0C730D207D1F7D9C157
:1072E000863521F481E371DF80E3D2C1833731F445
:1072F00087E86BDF85E969DF8EE1CAC18536B9F4BD
:10730000E0E0F0E093E085E090935700E89507B661
:1073100000FCFDCF80935700E89507B600FCFDCF39
:10732000E058FF4FA0E7E030FA0771F7A2CF8237AD
:1073300039F4E1E0F0E089E0809357008491A8C13E
:10734000863439F4E0E0F0E089E0809357008491DE
:107350009FC18E3439F4E3E0F0E089E08093570078
:10736000849196C1813539F4E2E0F0E089E08093C0
:10737000570084918DC1823631F489E526DF80E0A3
:1073800024DF80E885C1823419F0873609F0E5C032
:107390001092BD011092BC0100DF082FFEDEF82E16
:1073A000FCDE682E8554823008F071C1902F80E099
:1073B000CF2DD0E0C82BD92B10926F00173609F0D3
:1073C0004BC081E180935700E895DD24CC24C39421
:1073D0003FC0E090C101F090C2010091C301109143
:1073E000C401B6E46B16D9F4ED2DF0E0EE29FF29C7
:1073F000E4918E2FEADEDD2081F082E090E0A0E0D3
:10740000B0E0E80EF91E0A1F1B1FE092C101F092C6
:10741000C2010093C3011093C401DC2418C0D80139
:10742000C701B695A7959795879573D5CEDE82E06F
:1074300090E0A0E0B0E0E80EF91E0A1F1B1FE092EA
:10744000C101F092C2010093C3011093C4012197BE
:10745000209709F0BECF7DC08090C1019090C201FD
:10746000A090C301B090C40196E4691609F05DC014
:1074700083E0F40180935700E89507B600FCFDCF48
:1074800054C0F6E46F1661F5772031F1E090C10148
:10749000F090C2010091C3011091C4017EDED82E8C
:1074A000CC24852D90E08C299D29F7010C01409278
:1074B0005700E895112482E090E0A0E0B0E0E80EEB
:1074C000F91E0A1F1B1FE092C101F092C201009336
:1074D000C3011093C40102C060DE582E742423C07F
:1074E000E090C101F090C2010091C3011091C4016C
:1074F00016950795F794E79450DE682FC70111D5CC
:107500008091C1019091C201A091C301B091C401C9
:107510000296A11DB11D8093C1019093C201A09359
:10752000C301B093C401219704C055247724442497
:107530004394209709F0A5CF96E4691641F485E0BD
:10754000F40180935700E89507B600FCFDCF8DE06D
:107550003CDE82E080936F009CC0833471F4009124
:10756000C1011091C20119DE90E021E0F8010C0187
:1075700020935700E89511247CCE833619F5E090CE
:10758000C101F090C2010091C3011091C40105DE58
:10759000F701E16090E021E00C0120935700E895AD
:1075A000112482E090E0A0E0B0E0E80EF91E0A1F8E
:1075B0001B1FE092C101F092C2010093C30110931E
:1075C000C40157CE8D3661F4E091C101F091C20142
:1075D00085E080935700E89507B600FCFDCF49CEC3
:1075E000823551F4E091C101F091C20105911491ED
:1075F000812FEBDD802F4CC0843421F5E090C10158
:10760000F090C2010091C3011091C4011695079535
:10761000F794E794C2DD682FC70183D48091C1013C
:107620009091C201A091C301B091C4010296A11D25
:10763000B11D8093C1019093C201A093C301B09387
:10764000C40117CE843609F5E090C101F090C20163
:107650000091C3011091C401D801C701B695A79547
:107660009795879556D4B1DD82E090E0A0E0B0E038
:10767000E80EF91E0A1F1B1FE092C101F092C20121
:107680000093C3011093C40104C08B3111F08FE348
:107690009CDD83E08093E9009091E8008091E80010
:1076A0008E778093E80095FF04C010C08EB38823C6
:1076B000C9F08091E80080FFF9CF8091E8008E77D3
:1076C0008093E80003C08EB3882361F08091E800C6
:1076D00080FFF9CF84E08093E9008091E8008B7708
:1076E0008093E800DF91CF911F910F91FF90EF9071
:1076F000DF90CF90BF90AF909F908F907F906F90D2
:107700005F904F9008959091C901892F8F778132B2
:1077100049F58091CA018032A1F0813219F5913A80
:1077200009F58091E800877F8093E8008CE091E084
:1077300067E070E025D28091E8008B778093E800C5
:107740000895913279F48091E800877F8093E80072
:107750008CE091E067E070E077D28091E8008E776E
:107760008093E800089582E061EC42E0D1D083E0AC
:1077700061E842E1CDD084E060E842E1C9C01F93F6
:10778000209100081092000844B714BE88E10FB69B
:10779000F89480936000109260000FBE80E8E0E0F3
:1077A000F0E00FB6F89480936100E09361000FBEA3
:1077B00031E035BF92E095BF3F9A209A559A809369
:1077C00061001092610047985D9A289A1092890092
:1077D0008AEF8093880090936F0083E0809381000C
:1077E000859194918F5F9F4F11F03093C001942F3A
:1077F00041FF19C0809109012817A9F08093000862
:10780000789480911301882339F08091BE01909182
:10781000BF0188579140C8F310920008F89481E0A6
:10782000809313010CC090FF04C08091C001882395
:1078300051F493FF09C080910901281729F0809124
:10784000C001882309F04EDCD4D078941092BD0199
:107850001092BC011EEF20C0D7DC49D38091BC013F
:107860009091BD01815A9F4010F0109213018091B8
:10787000C5019091C60101969093C6018093C50100
:10788000292F97FF03C0512F591B252F220F28178F
:1078900010F4479801C0479A809113018823E1F6BC
:1078A0008091E00081608093E0001CDC80E090E04B
:1078B0001F910895FA01923049F0933061F09130B0
:1078C000F9F484E191E022E130E01EC086E291E02B
:1078D0002EE330E019C0882329F484E691E024E007
:1078E00030E012C0813029F488E691E022E230E0F5
:1078F0000BC0823029F48CE891E02AE230E004C029
:1079000080E090E020E030E091838083C901089519
:107910008093E9008091EB0081608093EB001092EE
:10792000ED006093EC004093ED008091EE00881F25
:107930008827881F08958091C90188238CF403C08B
:107940008EB38823B1F08091E80082FFF9CF809157
:10795000E8008B778093E80008958EB3882349F080
:107960008091E80080FFF9CF8091E8008E778093C6
:10797000E8000895EF92FF920F931F9345D04CD0EB
:1079800008ED10E0F80180818F7780838081806826
:10799000808380818F7D808319BC1EBA1092C701BD
:1079A00080EEE82EF12CF70180818B7F8083F80137
:1079B00080818160808380E060E042E0A9DFE1EEC9
:1079C000F0E080818E7F8083E2EEF0E08081816054
:1079D0008083808188608083F70180818E7F8083AF
:1079E000F8018081806180831F910F91FF90EF905B
:1079F0000895E7EDF0E08081816080838AE482BFB2
:107A000081E08093C801B6CFE8EDF0E080818E7F01
:107A100080831092E20008951092DA001092E10043
:107A200008951F920F920FB60F9211242F933F9338
:107A30004F935F936F937F938F939F93AF93BF9376
:107A4000EF93FF938091DA0080FF1AC08091D800F5
:107A500080FF16C08091DA008E7F8093DA008091DB
:107A6000D90080FF0AC019BC82E089BD09B400FEBC
:107A7000FDCF81E08EBB3AD203C019BC1EBA36D20C
:107A80008091E10080FF17C08091E20080FF13C069
:107A90008091E2008E7F8093E2008091E20080611D
:107AA0008093E2008091D80080628093D80019BC56
:107AB00085E08EBB1BD28091E10084FF2BC08091BA
:107AC000E20084FF27C019BC82E089BD09B400FE32
:107AD000FDCF8091D8008F7D8093D8008091E10008
:107AE0008F7E8093E1008091E2008F7E8093E200A0
:107AF0008091E20081608093E2008091C701882339
:107B000031F48091E30087FD02C081E001C084E090
:107B10008EBBECD18091E10083FF21C08091E20017
:107B200083FF1DC08091E100877F8093E10082E0A8
:107B30008EBB1092C7018091E1008E7F8093E1009F
:107B40008091E2008E7F8093E2008091E20080616C
:107B50008093E20080E060E042E0DADEC7D1FF918E
:107B6000EF91BF91AF919F918F917F916F915F91B5
:107B70004F913F912F910F900FBE0F901F9018952E
:107B80009C014091CF015091D0014617570718F43E
:107B9000F90190E044C06115710511F0AB01F8CF17
:107BA0008091E8008E778093E80040E050E0F0CFCD
:107BB0008EB3882309F444C0853009F443C0809112
:107BC000E80083FF02C081E008958091E80082FD13
:107BD00031C08091E80080FF22C08091F300909135
:107BE000F200782F60E0292F30E0262B372B07C0DA
:107BF00081918093F100415050402F5F3F4F4115DC
:107C0000510519F02830310598F390E028303105FE
:107C100009F491E08091E8008E778093E8004115A7
:107C2000510531F6992321F605C08EB3882341F022
:107C3000853041F08091E80082FFF7CF80E0089521
:107C400082E0089583E008959C016115710529F48F
:107C50008091E8008B778093E800F90126C08EB30D
:107C6000882391F1853091F18091E80083FF02C073
:107C700081E008958091E80082FFF1CF06C08091F5
:107C8000F10081936150704059F02091F300809190
:107C9000F200322F20E090E0822B932B892B79F792
:107CA0008091E8008B778093E80061157105B9F643
:107CB00005C08EB3882341F0853041F08091E80003
:107CC00080FFF7CF80E0089582E0089583E0089573
:107CD0000F931F93DF93CF9300D0CDB7DEB7E9ECBE
:107CE000F1E08091F100819381E0E13DF807C9F76F
:107CF0000ADD8091E80083FFE4C08091C901909182
:107D0000CA01953009F46DC0963040F4913081F18C
:107D1000913070F0933009F0D4C02AC0983009F443
:107D2000A3C0993009F4B2C0963009F0CAC07CC033
:107D3000803809F4C6C0823809F0C3C08091CD01F3
:107D400087708093E9008091EB001092E900209108
:107D5000E800277F2093E80090E025E0969587953E
:107D60002A95E1F781708093F1001092F10087C0AD
:107D7000882319F0823009F0A4C08F71823009F095
:107D8000A0C08091CB01882331F52091CD012770CF
:107D900009F497C02093E9008091EB0080FF1BC09D
:107DA000933021F48091EB00806213C08091EB004E
:107DB00080618093EB0081E090E002C0880F991F02
:107DC0002A95E2F78093EA001092EA008091EB0096
:107DD00088608093EB001092E9008091E800877F33
:107DE00051C0882309F06DC01091CB011F770FB7E8
:107DF000F8948091E800877F8093E8009CDD809173
:107E0000E80080FFFCCF8091E3008078812B809395
:107E1000E30080688093E300112311F482E001C045
:107E200083E08EBB0FBF4DC08058823008F049C040
:107E30008091CB019091CC016091CD01AE014F5F5B
:107E40005F4F38DDBC01009709F43BC08091E8002A
:107E5000877F8093E80089819A8192DE8091E80093
:107E60008B778093E8002DC0803859F58091E80029
:107E7000877F8093E8008091C7018093F100809113
:107E8000E8008E778093E80056DD1BC08823C9F494
:107E90009091CB019230A8F48091E800877F809385
:107EA000E8009093C70147DD8091C701882331F432
:107EB0008091E30087FD02C081E001C084E08EBBB9
:107EC00052DC8091E80083FF0AC08091EB00806261
:107ED0008093EB008091E800877F8093E8000F900B
:107EE0000F90CF91DF911F910F91089508951F93E7
:107EF0008EB3882361F01091E9001092E90080911F
:107F0000E80083FF01C0E4DE17701093E9001F91C1
:107F10000895F999FECF92BD81BDF89A992780B551
:107F20000895262FF999FECF1FBA92BD81BD20BDBD
:107F30000FB6F894FA9AF99A0FBE01960895F8943C
:027F4000FFCF71
:107F42004341544552494E41007700080000000069
:107F52000000080112011001020000084F1B0792E5
:107F620001000201000109023E0002010080320903
:107F72000400000102020100052400100104240291
:107F8200040524060001070582030800FF09040115
:107F920000020A0000000705040210000107058321
:107FA200021000010403090422034C0069006C0062
:107FB2007900500061006400550053004200200027
:107FC2002000200020002000200000002A0353008F
:107FD2007000610072006B00460075006E002000A8
:107FE20045006C0065006300740072006F006E0053
:087FF200690063007300000048
:040000030000700089
:00000001FF
